{
  "contractName": "Token_v2",
  "abi": [
    {
      "anonymous": false,
      "inputs": [
        {
          "indexed": true,
          "internalType": "address",
          "name": "oldAdmin",
          "type": "address"
        },
        {
          "indexed": true,
          "internalType": "address",
          "name": "newAdmin",
          "type": "address"
        },
        {
          "indexed": true,
          "internalType": "address",
          "name": "sender",
          "type": "address"
        }
      ],
      "name": "AdminChanged",
      "type": "event"
    },
    {
      "anonymous": false,
      "inputs": [
        {
          "indexed": true,
          "internalType": "address",
          "name": "owner",
          "type": "address"
        },
        {
          "indexed": true,
          "internalType": "address",
          "name": "spender",
          "type": "address"
        },
        {
          "indexed": false,
          "internalType": "uint256",
          "name": "value",
          "type": "uint256"
        }
      ],
      "name": "Approval",
      "type": "event"
    },
    {
      "anonymous": false,
      "inputs": [
        {
          "indexed": true,
          "internalType": "address",
          "name": "authorizer",
          "type": "address"
        },
        {
          "indexed": true,
          "internalType": "bytes32",
          "name": "nonce",
          "type": "bytes32"
        }
      ],
      "name": "AuthorizationCanceled",
      "type": "event"
    },
    {
      "anonymous": false,
      "inputs": [
        {
          "indexed": true,
          "internalType": "address",
          "name": "authorizer",
          "type": "address"
        },
        {
          "indexed": true,
          "internalType": "bytes32",
          "name": "nonce",
          "type": "bytes32"
        }
      ],
      "name": "AuthorizationUsed",
      "type": "event"
    },
    {
      "anonymous": false,
      "inputs": [
        {
          "indexed": true,
          "internalType": "address",
          "name": "burnee",
          "type": "address"
        },
        {
          "indexed": false,
          "internalType": "uint256",
          "name": "amount",
          "type": "uint256"
        },
        {
          "indexed": true,
          "internalType": "address",
          "name": "sender",
          "type": "address"
        }
      ],
      "name": "Burn",
      "type": "event"
    },
    {
      "anonymous": false,
      "inputs": [
        {
          "indexed": true,
          "internalType": "uint256",
          "name": "newCapacity",
          "type": "uint256"
        },
        {
          "indexed": true,
          "internalType": "address",
          "name": "sender",
          "type": "address"
        }
      ],
      "name": "Cap",
      "type": "event"
    },
    {
      "anonymous": false,
      "inputs": [
        {
          "indexed": true,
          "internalType": "address",
          "name": "oldCapper",
          "type": "address"
        },
        {
          "indexed": true,
          "internalType": "address",
          "name": "newCapper",
          "type": "address"
        },
        {
          "indexed": true,
          "internalType": "address",
          "name": "sender",
          "type": "address"
        }
      ],
      "name": "CapperChanged",
      "type": "event"
    },
    {
      "anonymous": false,
      "inputs": [
        {
          "indexed": true,
          "internalType": "address",
          "name": "mintee",
          "type": "address"
        },
        {
          "indexed": false,
          "internalType": "uint256",
          "name": "amount",
          "type": "uint256"
        },
        {
          "indexed": true,
          "internalType": "address",
          "name": "sender",
          "type": "address"
        }
      ],
      "name": "Mint",
      "type": "event"
    },
    {
      "anonymous": false,
      "inputs": [
        {
          "indexed": true,
          "internalType": "address",
          "name": "oldMinterAdmin",
          "type": "address"
        },
        {
          "indexed": true,
          "internalType": "address",
          "name": "newMinterAdmin",
          "type": "address"
        },
        {
          "indexed": true,
          "internalType": "address",
          "name": "sender",
          "type": "address"
        }
      ],
      "name": "MinterAdminChanged",
      "type": "event"
    },
    {
      "anonymous": false,
      "inputs": [
        {
          "indexed": true,
          "internalType": "address",
          "name": "oldMinter",
          "type": "address"
        },
        {
          "indexed": true,
          "internalType": "address",
          "name": "newMinter",
          "type": "address"
        },
        {
          "indexed": true,
          "internalType": "address",
          "name": "sender",
          "type": "address"
        }
      ],
      "name": "MinterChanged",
      "type": "event"
    },
    {
      "anonymous": false,
      "inputs": [
        {
          "indexed": true,
          "internalType": "address",
          "name": "oldOwner",
          "type": "address"
        },
        {
          "indexed": true,
          "internalType": "address",
          "name": "newOwner",
          "type": "address"
        },
        {
          "indexed": true,
          "internalType": "address",
          "name": "sender",
          "type": "address"
        }
      ],
      "name": "OwnerChanged",
      "type": "event"
    },
    {
      "anonymous": false,
      "inputs": [
        {
          "indexed": false,
          "internalType": "bool",
          "name": "status",
          "type": "bool"
        },
        {
          "indexed": true,
          "internalType": "address",
          "name": "sender",
          "type": "address"
        }
      ],
      "name": "Pause",
      "type": "event"
    },
    {
      "anonymous": false,
      "inputs": [
        {
          "indexed": true,
          "internalType": "address",
          "name": "oldPauser",
          "type": "address"
        },
        {
          "indexed": true,
          "internalType": "address",
          "name": "newPauser",
          "type": "address"
        },
        {
          "indexed": true,
          "internalType": "address",
          "name": "sender",
          "type": "address"
        }
      ],
      "name": "PauserChanged",
      "type": "event"
    },
    {
      "anonymous": false,
      "inputs": [
        {
          "indexed": true,
          "internalType": "address",
          "name": "addr",
          "type": "address"
        },
        {
          "indexed": false,
          "internalType": "uint256",
          "name": "amount",
          "type": "uint256"
        }
      ],
      "name": "ProhibitedAddressWiped",
      "type": "event"
    },
    {
      "anonymous": false,
      "inputs": [
        {
          "indexed": true,
          "internalType": "address",
          "name": "oldProhibiter",
          "type": "address"
        },
        {
          "indexed": true,
          "internalType": "address",
          "name": "newProhibiter",
          "type": "address"
        },
        {
          "indexed": true,
          "internalType": "address",
          "name": "sender",
          "type": "address"
        }
      ],
      "name": "ProhibiterChanged",
      "type": "event"
    },
    {
      "anonymous": false,
      "inputs": [
        {
          "indexed": true,
          "internalType": "address",
          "name": "prohibited",
          "type": "address"
        },
        {
          "indexed": false,
          "internalType": "bool",
          "name": "status",
          "type": "bool"
        },
        {
          "indexed": true,
          "internalType": "address",
          "name": "sender",
          "type": "address"
        }
      ],
      "name": "Prohibition",
      "type": "event"
    },
    {
      "anonymous": false,
      "inputs": [
        {
          "indexed": true,
          "internalType": "address",
          "name": "from",
          "type": "address"
        },
        {
          "indexed": true,
          "internalType": "address",
          "name": "to",
          "type": "address"
        },
        {
          "indexed": false,
          "internalType": "uint256",
          "name": "value",
          "type": "uint256"
        }
      ],
      "name": "Transfer",
      "type": "event"
    },
    {
      "anonymous": false,
      "inputs": [
        {
          "indexed": true,
          "internalType": "address",
          "name": "oldWiper",
          "type": "address"
        },
        {
          "indexed": true,
          "internalType": "address",
          "name": "newWiper",
          "type": "address"
        },
        {
          "indexed": true,
          "internalType": "address",
          "name": "sender",
          "type": "address"
        }
      ],
      "name": "WiperChanged",
      "type": "event"
    },
    {
      "inputs": [],
      "name": "APPROVE_WITH_AUTHORIZATION_TYPEHASH",
      "outputs": [
        {
          "internalType": "bytes32",
          "name": "",
          "type": "bytes32"
        }
      ],
      "stateMutability": "view",
      "type": "function",
      "constant": true
    },
    {
      "inputs": [],
      "name": "CANCEL_AUTHORIZATION_TYPEHASH",
      "outputs": [
        {
          "internalType": "bytes32",
          "name": "",
          "type": "bytes32"
        }
      ],
      "stateMutability": "view",
      "type": "function",
      "constant": true
    },
    {
      "inputs": [],
      "name": "DECREASE_ALLOWANCE_WITH_AUTHORIZATION_TYPEHASH",
      "outputs": [
        {
          "internalType": "bytes32",
          "name": "",
          "type": "bytes32"
        }
      ],
      "stateMutability": "view",
      "type": "function",
      "constant": true
    },
    {
      "inputs": [],
      "name": "DOMAIN_SEPARATOR",
      "outputs": [
        {
          "internalType": "bytes32",
          "name": "",
          "type": "bytes32"
        }
      ],
      "stateMutability": "view",
      "type": "function",
      "constant": true
    },
    {
      "inputs": [],
      "name": "INCREASE_ALLOWANCE_WITH_AUTHORIZATION_TYPEHASH",
      "outputs": [
        {
          "internalType": "bytes32",
          "name": "",
          "type": "bytes32"
        }
      ],
      "stateMutability": "view",
      "type": "function",
      "constant": true
    },
    {
      "inputs": [],
      "name": "PERMIT_TYPEHASH",
      "outputs": [
        {
          "internalType": "bytes32",
          "name": "",
          "type": "bytes32"
        }
      ],
      "stateMutability": "view",
      "type": "function",
      "constant": true
    },
    {
      "inputs": [],
      "name": "TRANSFER_WITH_AUTHORIZATION_TYPEHASH",
      "outputs": [
        {
          "internalType": "bytes32",
          "name": "",
          "type": "bytes32"
        }
      ],
      "stateMutability": "view",
      "type": "function",
      "constant": true
    },
    {
      "inputs": [],
      "name": "admin",
      "outputs": [
        {
          "internalType": "address",
          "name": "",
          "type": "address"
        }
      ],
      "stateMutability": "view",
      "type": "function",
      "constant": true
    },
    {
      "inputs": [
        {
          "internalType": "address",
          "name": "owner",
          "type": "address"
        },
        {
          "internalType": "address",
          "name": "spender",
          "type": "address"
        }
      ],
      "name": "allowance",
      "outputs": [
        {
          "internalType": "uint256",
          "name": "",
          "type": "uint256"
        }
      ],
      "stateMutability": "view",
      "type": "function",
      "constant": true
    },
    {
      "inputs": [
        {
          "internalType": "address",
          "name": "spender",
          "type": "address"
        },
        {
          "internalType": "uint256",
          "name": "value",
          "type": "uint256"
        }
      ],
      "name": "approve",
      "outputs": [
        {
          "internalType": "bool",
          "name": "",
          "type": "bool"
        }
      ],
      "stateMutability": "nonpayable",
      "type": "function"
    },
    {
      "inputs": [
        {
          "internalType": "address",
          "name": "owner",
          "type": "address"
        },
        {
          "internalType": "address",
          "name": "spender",
          "type": "address"
        },
        {
          "internalType": "uint256",
          "name": "value",
          "type": "uint256"
        },
        {
          "internalType": "uint256",
          "name": "validAfter",
          "type": "uint256"
        },
        {
          "internalType": "uint256",
          "name": "validBefore",
          "type": "uint256"
        },
        {
          "internalType": "bytes32",
          "name": "nonce",
          "type": "bytes32"
        },
        {
          "internalType": "uint8",
          "name": "v",
          "type": "uint8"
        },
        {
          "internalType": "bytes32",
          "name": "r",
          "type": "bytes32"
        },
        {
          "internalType": "bytes32",
          "name": "s",
          "type": "bytes32"
        }
      ],
      "name": "approveWithAuthorization",
      "outputs": [],
      "stateMutability": "nonpayable",
      "type": "function"
    },
    {
      "inputs": [
        {
          "internalType": "address",
          "name": "authorizer",
          "type": "address"
        },
        {
          "internalType": "bytes32",
          "name": "nonce",
          "type": "bytes32"
        }
      ],
      "name": "authorizationState",
      "outputs": [
        {
          "internalType": "enum MetaTransactions.AuthorizationState",
          "name": "",
          "type": "uint8"
        }
      ],
      "stateMutability": "view",
      "type": "function",
      "constant": true
    },
    {
      "inputs": [
        {
          "internalType": "address",
          "name": "account",
          "type": "address"
        }
      ],
      "name": "balanceOf",
      "outputs": [
        {
          "internalType": "uint256",
          "name": "",
          "type": "uint256"
        }
      ],
      "stateMutability": "view",
      "type": "function",
      "constant": true
    },
    {
      "inputs": [
        {
          "internalType": "uint256",
          "name": "_amount",
          "type": "uint256"
        }
      ],
      "name": "burn",
      "outputs": [],
      "stateMutability": "nonpayable",
      "type": "function"
    },
    {
      "inputs": [
        {
          "internalType": "address",
          "name": "authorizer",
          "type": "address"
        },
        {
          "internalType": "bytes32",
          "name": "nonce",
          "type": "bytes32"
        },
        {
          "internalType": "uint8",
          "name": "v",
          "type": "uint8"
        },
        {
          "internalType": "bytes32",
          "name": "r",
          "type": "bytes32"
        },
        {
          "internalType": "bytes32",
          "name": "s",
          "type": "bytes32"
        }
      ],
      "name": "cancelAuthorization",
      "outputs": [],
      "stateMutability": "nonpayable",
      "type": "function"
    },
    {
      "inputs": [
        {
          "internalType": "uint256",
          "name": "_amount",
          "type": "uint256"
        }
      ],
      "name": "cap",
      "outputs": [],
      "stateMutability": "nonpayable",
      "type": "function"
    },
    {
      "inputs": [],
      "name": "capacity",
      "outputs": [
        {
          "internalType": "uint256",
          "name": "",
          "type": "uint256"
        }
      ],
      "stateMutability": "view",
      "type": "function",
      "constant": true
    },
    {
      "inputs": [],
      "name": "capper",
      "outputs": [
        {
          "internalType": "address",
          "name": "",
          "type": "address"
        }
      ],
      "stateMutability": "view",
      "type": "function",
      "constant": true
    },
    {
      "inputs": [
        {
          "internalType": "address",
          "name": "_account",
          "type": "address"
        }
      ],
      "name": "changeAdmin",
      "outputs": [],
      "stateMutability": "nonpayable",
      "type": "function"
    },
    {
      "inputs": [
        {
          "internalType": "address",
          "name": "_account",
          "type": "address"
        }
      ],
      "name": "changeCapper",
      "outputs": [],
      "stateMutability": "nonpayable",
      "type": "function"
    },
    {
      "inputs": [
        {
          "internalType": "address",
          "name": "_account",
          "type": "address"
        }
      ],
      "name": "changeMinter",
      "outputs": [],
      "stateMutability": "nonpayable",
      "type": "function"
    },
    {
      "inputs": [
        {
          "internalType": "address",
          "name": "_account",
          "type": "address"
        }
      ],
      "name": "changeMinterAdmin",
      "outputs": [],
      "stateMutability": "nonpayable",
      "type": "function"
    },
    {
      "inputs": [
        {
          "internalType": "address",
          "name": "_account",
          "type": "address"
        }
      ],
      "name": "changeOwner",
      "outputs": [],
      "stateMutability": "nonpayable",
      "type": "function"
    },
    {
      "inputs": [
        {
          "internalType": "address",
          "name": "_account",
          "type": "address"
        }
      ],
      "name": "changePauser",
      "outputs": [],
      "stateMutability": "nonpayable",
      "type": "function"
    },
    {
      "inputs": [
        {
          "internalType": "address",
          "name": "_account",
          "type": "address"
        }
      ],
      "name": "changeProhibiter",
      "outputs": [],
      "stateMutability": "nonpayable",
      "type": "function"
    },
    {
      "inputs": [
        {
          "internalType": "address",
          "name": "_account",
          "type": "address"
        }
      ],
      "name": "changeWiper",
      "outputs": [],
      "stateMutability": "nonpayable",
      "type": "function"
    },
    {
      "inputs": [],
      "name": "decimals",
      "outputs": [
        {
          "internalType": "uint8",
          "name": "",
          "type": "uint8"
        }
      ],
      "stateMutability": "view",
      "type": "function",
      "constant": true
    },
    {
      "inputs": [
        {
          "internalType": "address",
          "name": "spender",
          "type": "address"
        },
        {
          "internalType": "uint256",
          "name": "subtractedValue",
          "type": "uint256"
        }
      ],
      "name": "decreaseAllowance",
      "outputs": [
        {
          "internalType": "bool",
          "name": "",
          "type": "bool"
        }
      ],
      "stateMutability": "nonpayable",
      "type": "function"
    },
    {
      "inputs": [
        {
          "internalType": "address",
          "name": "owner",
          "type": "address"
        },
        {
          "internalType": "address",
          "name": "spender",
          "type": "address"
        },
        {
          "internalType": "uint256",
          "name": "decrement",
          "type": "uint256"
        },
        {
          "internalType": "uint256",
          "name": "validAfter",
          "type": "uint256"
        },
        {
          "internalType": "uint256",
          "name": "validBefore",
          "type": "uint256"
        },
        {
          "internalType": "bytes32",
          "name": "nonce",
          "type": "bytes32"
        },
        {
          "internalType": "uint8",
          "name": "v",
          "type": "uint8"
        },
        {
          "internalType": "bytes32",
          "name": "r",
          "type": "bytes32"
        },
        {
          "internalType": "bytes32",
          "name": "s",
          "type": "bytes32"
        }
      ],
      "name": "decreaseAllowanceWithAuthorization",
      "outputs": [],
      "stateMutability": "nonpayable",
      "type": "function"
    },
    {
      "inputs": [
        {
          "internalType": "address",
          "name": "spender",
          "type": "address"
        },
        {
          "internalType": "uint256",
          "name": "addedValue",
          "type": "uint256"
        }
      ],
      "name": "increaseAllowance",
      "outputs": [
        {
          "internalType": "bool",
          "name": "",
          "type": "bool"
        }
      ],
      "stateMutability": "nonpayable",
      "type": "function"
    },
    {
      "inputs": [
        {
          "internalType": "address",
          "name": "owner",
          "type": "address"
        },
        {
          "internalType": "address",
          "name": "spender",
          "type": "address"
        },
        {
          "internalType": "uint256",
          "name": "increment",
          "type": "uint256"
        },
        {
          "internalType": "uint256",
          "name": "validAfter",
          "type": "uint256"
        },
        {
          "internalType": "uint256",
          "name": "validBefore",
          "type": "uint256"
        },
        {
          "internalType": "bytes32",
          "name": "nonce",
          "type": "bytes32"
        },
        {
          "internalType": "uint8",
          "name": "v",
          "type": "uint8"
        },
        {
          "internalType": "bytes32",
          "name": "r",
          "type": "bytes32"
        },
        {
          "internalType": "bytes32",
          "name": "s",
          "type": "bytes32"
        }
      ],
      "name": "increaseAllowanceWithAuthorization",
      "outputs": [],
      "stateMutability": "nonpayable",
      "type": "function"
    },
    {
      "inputs": [
        {
          "internalType": "string",
          "name": "_name",
          "type": "string"
        },
        {
          "internalType": "string",
          "name": "_symbol",
          "type": "string"
        },
        {
          "internalType": "uint8",
          "name": "_decimals",
          "type": "uint8"
        },
        {
          "internalType": "address",
          "name": "_owner",
          "type": "address"
        },
        {
          "internalType": "address",
          "name": "_admin",
          "type": "address"
        },
        {
          "internalType": "address",
          "name": "_capper",
          "type": "address"
        },
        {
          "internalType": "address",
          "name": "_prohibiter",
          "type": "address"
        },
        {
          "internalType": "address",
          "name": "_pauser",
          "type": "address"
        },
        {
          "internalType": "address",
          "name": "_minterAdmin",
          "type": "address"
        },
        {
          "internalType": "address",
          "name": "_minter",
          "type": "address"
        }
      ],
      "name": "initialize",
      "outputs": [],
      "stateMutability": "nonpayable",
      "type": "function"
    },
    {
      "inputs": [
        {
          "internalType": "address",
          "name": "_account",
          "type": "address"
        }
      ],
      "name": "initializeWiper",
      "outputs": [],
      "stateMutability": "nonpayable",
      "type": "function"
    },
    {
      "inputs": [
        {
          "internalType": "address",
          "name": "forwarder",
          "type": "address"
        }
      ],
      "name": "isTrustedForwarder",
      "outputs": [
        {
          "internalType": "bool",
          "name": "",
          "type": "bool"
        }
      ],
      "stateMutability": "view",
      "type": "function",
      "constant": true
    },
    {
      "inputs": [
        {
          "internalType": "address",
          "name": "_account",
          "type": "address"
        },
        {
          "internalType": "uint256",
          "name": "_amount",
          "type": "uint256"
        }
      ],
      "name": "mint",
      "outputs": [],
      "stateMutability": "nonpayable",
      "type": "function"
    },
    {
      "inputs": [],
      "name": "minter",
      "outputs": [
        {
          "internalType": "address",
          "name": "",
          "type": "address"
        }
      ],
      "stateMutability": "view",
      "type": "function",
      "constant": true
    },
    {
      "inputs": [],
      "name": "minterAdmin",
      "outputs": [
        {
          "internalType": "address",
          "name": "",
          "type": "address"
        }
      ],
      "stateMutability": "view",
      "type": "function",
      "constant": true
    },
    {
      "inputs": [],
      "name": "name",
      "outputs": [
        {
          "internalType": "string",
          "name": "",
          "type": "string"
        }
      ],
      "stateMutability": "view",
      "type": "function",
      "constant": true
    },
    {
      "inputs": [
        {
          "internalType": "address",
          "name": "owner",
          "type": "address"
        }
      ],
      "name": "nonces",
      "outputs": [
        {
          "internalType": "uint256",
          "name": "",
          "type": "uint256"
        }
      ],
      "stateMutability": "view",
      "type": "function",
      "constant": true
    },
    {
      "inputs": [],
      "name": "owner",
      "outputs": [
        {
          "internalType": "address",
          "name": "",
          "type": "address"
        }
      ],
      "stateMutability": "view",
      "type": "function",
      "constant": true
    },
    {
      "inputs": [],
      "name": "pause",
      "outputs": [],
      "stateMutability": "nonpayable",
      "type": "function"
    },
    {
      "inputs": [],
      "name": "paused",
      "outputs": [
        {
          "internalType": "bool",
          "name": "",
          "type": "bool"
        }
      ],
      "stateMutability": "view",
      "type": "function",
      "constant": true
    },
    {
      "inputs": [],
      "name": "pauser",
      "outputs": [
        {
          "internalType": "address",
          "name": "",
          "type": "address"
        }
      ],
      "stateMutability": "view",
      "type": "function",
      "constant": true
    },
    {
      "inputs": [
        {
          "internalType": "address",
          "name": "owner",
          "type": "address"
        },
        {
          "internalType": "address",
          "name": "spender",
          "type": "address"
        },
        {
          "internalType": "uint256",
          "name": "value",
          "type": "uint256"
        },
        {
          "internalType": "uint256",
          "name": "deadline",
          "type": "uint256"
        },
        {
          "internalType": "uint8",
          "name": "v",
          "type": "uint8"
        },
        {
          "internalType": "bytes32",
          "name": "r",
          "type": "bytes32"
        },
        {
          "internalType": "bytes32",
          "name": "s",
          "type": "bytes32"
        }
      ],
      "name": "permit",
      "outputs": [],
      "stateMutability": "nonpayable",
      "type": "function"
    },
    {
      "inputs": [
        {
          "internalType": "address",
          "name": "_account",
          "type": "address"
        }
      ],
      "name": "prohibit",
      "outputs": [],
      "stateMutability": "nonpayable",
      "type": "function"
    },
    {
      "inputs": [
        {
          "internalType": "address",
          "name": "",
          "type": "address"
        }
      ],
      "name": "prohibiteds",
      "outputs": [
        {
          "internalType": "bool",
          "name": "",
          "type": "bool"
        }
      ],
      "stateMutability": "view",
      "type": "function",
      "constant": true
    },
    {
      "inputs": [],
      "name": "prohibiter",
      "outputs": [
        {
          "internalType": "address",
          "name": "",
          "type": "address"
        }
      ],
      "stateMutability": "view",
      "type": "function",
      "constant": true
    },
    {
      "inputs": [],
      "name": "symbol",
      "outputs": [
        {
          "internalType": "string",
          "name": "",
          "type": "string"
        }
      ],
      "stateMutability": "view",
      "type": "function",
      "constant": true
    },
    {
      "inputs": [],
      "name": "testmint",
      "outputs": [],
      "stateMutability": "nonpayable",
      "type": "function"
    },
    {
      "inputs": [],
      "name": "totalSupply",
      "outputs": [
        {
          "internalType": "uint256",
          "name": "",
          "type": "uint256"
        }
      ],
      "stateMutability": "view",
      "type": "function",
      "constant": true
    },
    {
      "inputs": [
        {
          "internalType": "address",
          "name": "_sender",
          "type": "address"
        },
        {
          "internalType": "address",
          "name": "_recipient",
          "type": "address"
        },
        {
          "internalType": "uint256",
          "name": "_amount",
          "type": "uint256"
        }
      ],
      "name": "transferFrom",
      "outputs": [
        {
          "internalType": "bool",
          "name": "",
          "type": "bool"
        }
      ],
      "stateMutability": "nonpayable",
      "type": "function"
    },
    {
      "inputs": [
        {
          "internalType": "address",
          "name": "from",
          "type": "address"
        },
        {
          "internalType": "address",
          "name": "to",
          "type": "address"
        },
        {
          "internalType": "uint256",
          "name": "value",
          "type": "uint256"
        },
        {
          "internalType": "uint256",
          "name": "validAfter",
          "type": "uint256"
        },
        {
          "internalType": "uint256",
          "name": "validBefore",
          "type": "uint256"
        },
        {
          "internalType": "bytes32",
          "name": "nonce",
          "type": "bytes32"
        },
        {
          "internalType": "uint8",
          "name": "v",
          "type": "uint8"
        },
        {
          "internalType": "bytes32",
          "name": "r",
          "type": "bytes32"
        },
        {
          "internalType": "bytes32",
          "name": "s",
          "type": "bytes32"
        }
      ],
      "name": "transferWithAuthorization",
      "outputs": [],
      "stateMutability": "nonpayable",
      "type": "function"
    },
    {
      "inputs": [],
      "name": "unpause",
      "outputs": [],
      "stateMutability": "nonpayable",
      "type": "function"
    },
    {
      "inputs": [
        {
          "internalType": "address",
          "name": "_account",
          "type": "address"
        }
      ],
      "name": "unprohibit",
      "outputs": [],
      "stateMutability": "nonpayable",
      "type": "function"
    },
    {
      "inputs": [],
      "name": "wiper",
      "outputs": [
        {
          "internalType": "address",
          "name": "",
          "type": "address"
        }
      ],
      "stateMutability": "view",
      "type": "function",
      "constant": true
    },
    {
      "inputs": [
        {
          "internalType": "string",
          "name": "_newName",
          "type": "string"
        },
        {
          "internalType": "address",
          "name": "_wiper",
          "type": "address"
        },
        {
          "internalType": "address",
          "name": "_forwarder",
          "type": "address"
        }
      ],
      "name": "initializeV2",
      "outputs": [],
      "stateMutability": "nonpayable",
      "type": "function"
    },
    {
      "inputs": [
        {
          "internalType": "address",
          "name": "_account",
          "type": "address"
        }
      ],
      "name": "wipeProhibitedAddress",
      "outputs": [],
      "stateMutability": "nonpayable",
      "type": "function"
    },
    {
      "inputs": [
        {
          "internalType": "address",
          "name": "_recipient",
          "type": "address"
        },
        {
          "internalType": "uint256",
          "name": "_amount",
          "type": "uint256"
        }
      ],
      "name": "transfer",
      "outputs": [
        {
          "internalType": "bool",
          "name": "",
          "type": "bool"
        }
      ],
      "stateMutability": "nonpayable",
      "type": "function"
    },
    {
      "inputs": [],
      "name": "versionRecipient",
      "outputs": [
        {
          "internalType": "string",
          "name": "",
          "type": "string"
        }
      ],
      "stateMutability": "view",
      "type": "function",
      "constant": true
    },
    {
      "inputs": [
        {
          "internalType": "address",
          "name": "forwarder",
          "type": "address"
        }
      ],
      "name": "SetTrustedForwarder",
      "outputs": [],
      "stateMutability": "nonpayable",
      "type": "function"
    }
  ],
  "bytecode": "0x60806040526000600455600580546001600160a01b0319908116909155600680546001600160a81b031916905560078054821690556009805482169055600a805482169055600b805482169055600c80549091169055600f8054610100600160a81b031916905534801561007257600080fd5b50614618806100826000396000f3fe608060405234801561001057600080fd5b50600436106103a45760003560e01c80637ecebe00116101e9578063b89da6421161010f578063dcb413c8116100ad578063e3ee160e1161007c578063e3ee160e14610cba578063e94a010214610d19578063f851a44014610d69578063ff2ad8e414610d71576103a4565b8063dcb413c814610c1d578063dd62ed3e14610c25578063dd75049b14610c53578063e1560fd314610c5b576103a4565b8063c7b84f8d116100e9578063c7b84f8d14610b96578063cffdd46c14610b9e578063d505accf14610bc4578063d916948714610c15576103a4565b8063b89da642146109a2578063c237108f14610b11578063c4e1ccf214610b70576103a4565b80639fd0506d11610187578063a754d48f11610156578063a754d48f146108e9578063a9059cbb146108f1578063b00860951461091d578063b0e717661461097c576103a4565b80639fd0506d14610887578063a0cc6a681461088f578063a457c2d714610897578063a6f9dae1146108c3576103a4565b80638da5cb5b116101c35780638da5cb5b1461082b5780638f28397014610833578063949a36521461085957806395d89b411461087f576103a4565b80637ecebe00146107d75780638456cb59146107fd5780638c2bee8014610805576103a4565b806339509351116102ce57806350a6aaf41161026c5780635cfc1a511161023b5780635cfc1a5114610702578063659f50dc1461070a578063664dc7241461078b57806370a08231146107b1576103a4565b806350a6aaf41461068b578063572b6c05146106935780635a049a70146106b95780635c975abb146106fa576103a4565b806340c10f19116102a857806340c10f191461063257806342966c681461065e578063486ff0cd1461067b5780634b71f5c314610683576103a4565b806339509351146105d85780633b6aa12b146106045780633f4ba83a1461062a576103a4565b806323b872dd116103465780632fee80d0116103155780632fee80d01461058457806330adf81f146105aa578063313ce567146105b25780633644e515146105d0576103a4565b806323b872dd146104dc5780632ad3ed6d146105125780632c4d4d18146105385780632cd271e71461055e576103a4565b8063085fda8311610382578063085fda8314610472578063095ea7b31461047a57806310c8b404146104ba57806318160ddd146104d4576103a4565b80630628922d146103a957806306fdde03146103d1578063075461721461044e575b600080fd5b6103cf600480360360208110156103bf57600080fd5b50356001600160a01b0316610d8e565b005b6103d9610edc565b6040805160208082528351818301528351919283929083019185019080838360005b838110156104135781810151838201526020016103fb565b50505050905090810190601f1680156104405780820380516001836020036101000a031916815260200191505b509250505060405180910390f35b610456610f6a565b604080516001600160a01b039092168252519081900360200190f35b6103cf610f79565b6104a66004803603604081101561049057600080fd5b506001600160a01b038135169060200135610fb1565b604080519115158252519081900360200190f35b6104c2610fc7565b60408051918252519081900360200190f35b6104c2610feb565b6104a6600480360360608110156104f257600080fd5b506001600160a01b03813581169160208101359091169060400135610ff2565b6104a66004803603602081101561052857600080fd5b50356001600160a01b0316611104565b6103cf6004803603602081101561054e57600080fd5b50356001600160a01b0316611119565b6103cf6004803603602081101561057457600080fd5b50356001600160a01b0316611251565b6103cf6004803603602081101561059a57600080fd5b50356001600160a01b0316611340565b6104c261148a565b6105ba6114ae565b6040805160ff9092168252519081900360200190f35b6104c26114b7565b6104a6600480360360408110156105ee57600080fd5b506001600160a01b0381351690602001356114bd565b6103cf6004803603602081101561061a57600080fd5b50356001600160a01b03166114fe565b6103cf611679565b6103cf6004803603604081101561064857600080fd5b506001600160a01b038135169060200135611788565b6103cf6004803603602081101561067457600080fd5b503561191d565b6103d96119a2565b6104c26119c1565b6104566119e5565b6104a6600480360360208110156106a957600080fd5b50356001600160a01b03166119f4565b6103cf600480360360a08110156106cf57600080fd5b506001600160a01b038135169060208101359060ff6040820135169060608101359060800135611a08565b6104a6611b69565b6104c2611b79565b6103cf6004803603606081101561072057600080fd5b81019060208101813564010000000081111561073b57600080fd5b82018360208201111561074d57600080fd5b8035906020019184600183028401116401000000008311171561076f57600080fd5b91935091506001600160a01b0381358116916020013516611b7f565b6103cf600480360360208110156107a157600080fd5b50356001600160a01b0316611ceb565b6104c2600480360360208110156107c757600080fd5b50356001600160a01b0316611eaa565b6104c2600480360360208110156107ed57600080fd5b50356001600160a01b0316611ec5565b6103cf611ee0565b6103cf6004803603602081101561081b57600080fd5b50356001600160a01b0316611fe3565b61045661209f565b6103cf6004803603602081101561084957600080fd5b50356001600160a01b03166120ae565b6103cf6004803603602081101561086f57600080fd5b50356001600160a01b03166121af565b6103d961226f565b6104566122ca565b6104c26122d9565b6104a6600480360360408110156108ad57600080fd5b506001600160a01b0381351690602001356122fd565b6103cf600480360360208110156108d957600080fd5b50356001600160a01b0316612339565b610456612487565b6104a66004803603604081101561090757600080fd5b506001600160a01b038135169060200135612496565b6103cf600480360361012081101561093457600080fd5b506001600160a01b03813581169160208101359091169060408101359060608101359060808101359060a08101359060ff60c0820135169060e08101359061010001356125a5565b6103cf6004803603602081101561099257600080fd5b50356001600160a01b03166126fe565b6103cf60048036036101408110156109b957600080fd5b8101906020810181356401000000008111156109d457600080fd5b8201836020820111156109e657600080fd5b80359060200191846001830284011164010000000083111715610a0857600080fd5b91908080601f0160208091040260200160405190810160405280939291908181526020018383808284376000920191909152509295949360208101935035915050640100000000811115610a5b57600080fd5b820183602082011115610a6d57600080fd5b80359060200191846001830284011164010000000083111715610a8f57600080fd5b91908080601f0160208091040260200160405190810160405280939291908181526020018383808284376000920191909152509295505060ff8335169350506001600160a01b0360208301358116926040810135821692506060810135821691608082013581169160a081013582169160c082013581169160e001351661283a565b6103cf6004803603610120811015610b2857600080fd5b506001600160a01b03813581169160208101359091169060408101359060608101359060808101359060a08101359060ff60c0820135169060e0810135906101000135612c08565b6103cf60048036036020811015610b8657600080fd5b50356001600160a01b0316612d49565b6104c2612f14565b6103cf60048036036020811015610bb457600080fd5b50356001600160a01b0316612f38565b6103cf600480360360e0811015610bda57600080fd5b506001600160a01b03813581169160208101359091169060408101359060608101359060ff6080820135169060a08101359060c00135613074565b6104c261321c565b610456613240565b6104c260048036036040811015610c3b57600080fd5b506001600160a01b0381358116916020013516613254565b61045661327f565b6103cf6004803603610120811015610c7257600080fd5b506001600160a01b03813581169160208101359091169060408101359060608101359060808101359060a08101359060ff60c0820135169060e081013590610100013561328e565b6103cf6004803603610120811015610cd157600080fd5b506001600160a01b03813581169160208101359091169060408101359060608101359060808101359060a08101359060ff60c0820135169060e08101359061010001356133c7565b610d4560048036036040811015610d2f57600080fd5b506001600160a01b03813516906020013561356d565b60405180826002811115610d5557fe5b60ff16815260200191505060405180910390f35b610456613598565b6103cf60048036036020811015610d8757600080fd5b50356135a7565b600c546001600160a01b03163314610ded576040805162461bcd60e51b815260206004820152601b60248201527f7468652073656e646572206973206e6f7420746865206f776e65720000000000604482015290519081900360640190fd5b600654600160a01b900460ff1615610e3a576040805162461bcd60e51b81526020600482015260196024820152600080516020614398833981519152604482015290519081900360640190fd5b806001600160a01b038116610e84576040805162461bcd60e51b8152602060048201819052602482015260008051602061432e833981519152604482015290519081900360640190fd5b600b80546001600160a01b038481166001600160a01b03198316179283905560405191811692339291169083907f4a85a5117c27071f301f0a758ea45cef77712d3d8358f0883b21c46ee1693d6790600090a4505050565b600d805460408051602060026001851615610100026000190190941693909304601f81018490048402820184019092528181529291830182828015610f625780601f10610f3757610100808354040283529160200191610f62565b820191906000526020600020905b815481529060010190602001808311610f4557829003601f168201915b505050505081565b600a546001600160a01b031681565b6000610f836136e2565b90506000610f9082611eaa565b9050610f9d600019613702565b610fad82826305f5e10001613737565b5050565b6000610fbe338484613829565b50600192915050565b7f808c10407a796f3ef2c7ea38c0638ea9d2b8a1c63e3ca9e1f56ce84ae59df73c81565b6003545b90565b600654600090600160a01b900460ff1615611042576040805162461bcd60e51b81526020600482015260196024820152600080516020614398833981519152604482015290519081900360640190fd5b6001600160a01b038416600090815260086020526040902054849060ff16156110af576040805162461bcd60e51b815260206004820152601a6024820152791d1a1a5cc81858d8dbdd5b9d081a5cc81c1c9bda1a589a5d195960321b604482015290519081900360640190fd5b82806000106110ef5760405162461bcd60e51b81526004018080602001828103825260238152602001806144336023913960400191505060405180910390fd5b6110fa868686613915565b9695505050505050565b60086020526000908152604090205460ff1681565b600b546001600160a01b031633146111625760405162461bcd60e51b81526004018080602001828103825260218152602001806143b86021913960400191505060405180910390fd5b600654600160a01b900460ff16156111af576040805162461bcd60e51b81526020600482015260196024820152600080516020614398833981519152604482015290519081900360640190fd5b806001600160a01b0381166111f9576040805162461bcd60e51b8152602060048201819052602482015260008051602061432e833981519152604482015290519081900360640190fd5b600a80546001600160a01b038481166001600160a01b03198316179283905560405191811692339291169083907f6970e71b2bda096f4eb3290c554af7a888cca0ef8b95da09c55b23c6bb30e38190600090a4505050565b6009546001600160a01b0316331461129e576040805162461bcd60e51b815260206004820152601b6024820152600080516020614266833981519152604482015290519081900360640190fd5b806001600160a01b0381166112e8576040805162461bcd60e51b8152602060048201819052602482015260008051602061432e833981519152604482015290519081900360640190fd5b600680546001600160a01b038481166001600160a01b03198316179283905560405191811692339291169083907f8b1ee37fa817a066fe12c7c9bf109c0c9f8f03ef0a5cfe0c03d5196e8c2e465790600090a4505050565b6009546001600160a01b0316331461138d576040805162461bcd60e51b815260206004820152601b6024820152600080516020614266833981519152604482015290519081900360640190fd5b600654600160a01b900460ff16156113da576040805162461bcd60e51b81526020600482015260196024820152600080516020614398833981519152604482015290519081900360640190fd5b806001600160a01b038116611424576040805162461bcd60e51b8152602060048201819052602482015260008051602061432e833981519152604482015290519081900360640190fd5b600f80546001600160a01b03848116610100908102610100600160a81b0319841617938490556040519281900482169333939190049091169083907fd8d09cf07cabd1c0519931ab387ce1b6e580584a26fb2787b8ed7f446c34603f90600090a4505050565b7f6e71edae12b1b97f4d1f60370fef10105fa2faae0126114a169c64845d6126c981565b600f5460ff1681565b60115481565b3360008181526002602090815260408083206001600160a01b03871684529091528120549091610fbe9185906114f9908663ffffffff61396716565b613829565b600654600160a01b900460ff161561154b576040805162461bcd60e51b81526020600482015260196024820152600080516020614398833981519152604482015290519081900360640190fd5b600f5461010090046001600160a01b031633146115af576040805162461bcd60e51b815260206004820152601b60248201527f7468652073656e646572206973206e6f74207468652077697065720000000000604482015290519081900360640190fd5b6001600160a01b038116600090815260086020526040902054819060ff1661161e576040805162461bcd60e51b815260206004820152601e60248201527f74686973206163636f756e74206973206e6f742070726f686962697465640000604482015290519081900360640190fd5b600061162983611eaa565b905061163583826139c8565b6040805182815290516001600160a01b038516917f0c33c145e6d9d2a0b65f5f10329f8667d6538b98b55d7895abec66e917019a54919081900360200190a2505050565b6006546001600160a01b031633146116d8576040805162461bcd60e51b815260206004820152601c60248201527f7468652073656e646572206973206e6f74207468652070617573657200000000604482015290519081900360640190fd5b600654600160a01b900460ff16611736576040805162461bcd60e51b815260206004820152601d60248201527f74686973206973206e6f7420612070617573656420636f6e7472616374000000604482015290519081900360640190fd5b6006805460ff60a01b19169081905560408051600160a01b90920460ff16151582525133917f5a9dfee0981174e5203ccf9368a8cabb254f9dea6ca43f96b4bbd10c69415d8a919081900360200190a2565b600a546001600160a01b031633146117e7576040805162461bcd60e51b815260206004820152601c60248201527f7468652073656e646572206973206e6f7420746865206d696e74657200000000604482015290519081900360640190fd5b600654600160a01b900460ff1615611834576040805162461bcd60e51b81526020600482015260196024820152600080516020614398833981519152604482015290519081900360640190fd5b61184c81611840610feb565b9063ffffffff61396716565b60045481111561188d5760405162461bcd60e51b81526004018080602001828103825260218152602001806145c26021913960400191505060405180910390fd5b81806000106118cd5760405162461bcd60e51b81526004018080602001828103825260238152602001806144336023913960400191505060405180910390fd5b6118d78484613737565b60408051848152905133916001600160a01b038716917fbcad3d7d3dfccb90d49c6063bf70f828901fefc88937d90af74e58e6e55bc39d9181900360200190a350505050565b808060001061195d5760405162461bcd60e51b81526004018080602001828103825260238152602001806144336023913960400191505060405180910390fd5b61196733836139c8565b604080518381529051339182917fdbdf9b8e4b75e75b162d151ec8fc7f0561cabab5fcccfa2600be62223e4300c49181900360200190a35050565b6040805180820190915260058152640322e302e360dc1b602082015290565b7fb70559e94cbda91958ebec07f9b65b3b490097c8d25c8dacd71105df1015b6d881565b6005546001600160a01b031681565b6010546001600160a01b0390811691161490565b600654600160a01b900460ff1615611a55576040805162461bcd60e51b81526020600482015260196024820152600080516020614398833981519152604482015290519081900360640190fd5b611a5f8585613aa3565b604080517f158b0a9edf7a828aad02f63cd515c68ef2f50ba807396f6d12842833a159742960208201526001600160a01b0387168183018190526060828101889052835180840390910181526080909201909252601154909190611ac69086868686613b11565b6001600160a01b031614611b0b5760405162461bcd60e51b81526004018080602001828103825260268152602001806143726026913960400191505060405180910390fd5b6001600160a01b0386166000818152601260209081526040808320898452909152808220805460ff19166002179055518792917f1cdd46ff242716cdaa72d159d339a485b3438398348d68f09d7c8c0a59353d8191a3505050505050565b600654600160a01b900460ff1681565b60045481565b60145460ff1615611bd7576040805162461bcd60e51b815260206004820152601f60248201527f436f6e747261637420697320616c726561647920696e697469616c697a656400604482015290519081900360640190fd5b611be3600d858561413c565b50600f8054610100600160a81b0319166101006001600160a01b038516810291909117909155600d8054604080516020600260018516159096026000190190931694909404601f8101839004830285018301909152808452611cb6939291830182828015611c925780601f10611c6757610100808354040283529160200191611c92565b820191906000526020600020905b815481529060010190602001808311611c7557829003601f168201915b5050505050604051806040016040528060018152602001601960f91b815250613b68565b601155601080546001600160a01b0319166001600160a01b039290921691909117905550506014805460ff1916600117905550565b6007546001600160a01b03163314611d4a576040805162461bcd60e51b815260206004820181905260248201527f7468652073656e646572206973206e6f74207468652070726f68696269746572604482015290519081900360640190fd5b600654600160a01b900460ff1615611d97576040805162461bcd60e51b81526020600482015260196024820152600080516020614398833981519152604482015290519081900360640190fd5b806001600160a01b038116611de1576040805162461bcd60e51b8152602060048201819052602482015260008051602061432e833981519152604482015290519081900360640190fd5b6001600160a01b038216600090815260086020526040902054829060ff16611e50576040805162461bcd60e51b815260206004820152601e60248201527f74686973206163636f756e74206973206e6f742070726f686962697465640000604482015290519081900360640190fd5b6001600160a01b0383166000818152600860209081526040808320805460ff191690558051928352513393927fab0ab2fa6ff81b10c5afab4726a665d4379f2d0acaaafbe4c4d737ade05a8e4692908290030190a3505050565b6001600160a01b031660009081526001602052604090205490565b6001600160a01b031660009081526013602052604090205490565b6006546001600160a01b03163314611f3f576040805162461bcd60e51b815260206004820152601c60248201527f7468652073656e646572206973206e6f74207468652070617573657200000000604482015290519081900360640190fd5b600654600160a01b900460ff1615611f8c576040805162461bcd60e51b81526020600482015260196024820152600080516020614398833981519152604482015290519081900360640190fd5b6006805460ff60a01b1916600160a01b90811791829055604080519190920460ff1615158152905133917f5a9dfee0981174e5203ccf9368a8cabb254f9dea6ca43f96b4bbd10c69415d8a919081900360200190a2565b600654600160a01b900460ff1615612030576040805162461bcd60e51b81526020600482015260196024820152600080516020614398833981519152604482015290519081900360640190fd5b6009546001600160a01b0316331461207d576040805162461bcd60e51b815260206004820152601b6024820152600080516020614266833981519152604482015290519081900360640190fd5b601080546001600160a01b0319166001600160a01b0392909216919091179055565b600c546001600160a01b031681565b600c546001600160a01b0316331461210d576040805162461bcd60e51b815260206004820152601b60248201527f7468652073656e646572206973206e6f7420746865206f776e65720000000000604482015290519081900360640190fd5b806001600160a01b038116612157576040805162461bcd60e51b8152602060048201819052602482015260008051602061432e833981519152604482015290519081900360640190fd5b600980546001600160a01b038481166001600160a01b03198316179283905560405191811692339291169083907f4eb572e99196bed0270fbd5b17a948e19c3f50a97838cb0d2a75a823ff8e6c5090600090a4505050565b806001600160a01b0381166121f9576040805162461bcd60e51b8152602060048201819052602482015260008051602061432e833981519152604482015290519081900360640190fd5b600f5461010090046001600160a01b0316156122465760405162461bcd60e51b815260040180806020018281038252602481526020018061434e6024913960400191505060405180910390fd5b50600f80546001600160a01b0390921661010002610100600160a81b0319909216919091179055565b600e805460408051602060026001851615610100026000190190941693909304601f81018490048402820184019092528181529291830182828015610f625780601f10610f3757610100808354040283529160200191610f62565b6006546001600160a01b031681565b7f7c7c6cdb67a18743f49ec6fa9b35f50d52ed05cbed4cc592e13b44501c1a226781565b3360008181526002602090815260408083206001600160a01b03871684529091528120549091610fbe9185906114f9908663ffffffff613bda16565b600c546001600160a01b03163314612398576040805162461bcd60e51b815260206004820152601b60248201527f7468652073656e646572206973206e6f7420746865206f776e65720000000000604482015290519081900360640190fd5b600654600160a01b900460ff16156123e5576040805162461bcd60e51b81526020600482015260196024820152600080516020614398833981519152604482015290519081900360640190fd5b806001600160a01b03811661242f576040805162461bcd60e51b8152602060048201819052602482015260008051602061432e833981519152604482015290519081900360640190fd5b600c80546001600160a01b038481166001600160a01b03198316179283905560405191811692339291169083907f381c0d11398486654573703c51ee8210ce9461764d133f9f0e53b6a53970533190600090a4505050565b600b546001600160a01b031681565b600654600090600160a01b900460ff16156124e6576040805162461bcd60e51b81526020600482015260196024820152600080516020614398833981519152604482015290519081900360640190fd5b3360008181526008602052604090205460ff1615612548576040805162461bcd60e51b815260206004820152601a6024820152791d1a1a5cc81858d8dbdd5b9d081a5cc81c1c9bda1a589a5d195960321b604482015290519081900360640190fd5b82806000106125885760405162461bcd60e51b81526004018080602001828103825260238152602001806144336023913960400191505060405180910390fd5b61259a612593613c1c565b8686613c8a565b506001949350505050565b600654600160a01b900460ff16156125f2576040805162461bcd60e51b81526020600482015260196024820152600080516020614398833981519152604482015290519081900360640190fd5b6125fe89858888613dce565b604080517fb70559e94cbda91958ebec07f9b65b3b490097c8d25c8dacd71105df1015b6d860208201526001600160a01b03808c16828401819052908b166060830152608082018a905260a0820189905260c0820188905260e0808301889052835180840390910181526101009092019092526011549091906126849086868686613b11565b6001600160a01b0316146126c95760405162461bcd60e51b81526004018080602001828103825260358152602001806144566035913960400191505060405180910390fd5b6126d38a86613e5a565b6126f28a8a6114f98b6126e68f8f613254565b9063ffffffff613bda16565b50505050505050505050565b6009546001600160a01b0316331461274b576040805162461bcd60e51b815260206004820152601b6024820152600080516020614266833981519152604482015290519081900360640190fd5b600654600160a01b900460ff1615612798576040805162461bcd60e51b81526020600482015260196024820152600080516020614398833981519152604482015290519081900360640190fd5b806001600160a01b0381166127e2576040805162461bcd60e51b8152602060048201819052602482015260008051602061432e833981519152604482015290519081900360640190fd5b600580546001600160a01b038481166001600160a01b03198316179283905560405191811692339291169083907fc4d5c17597bd0c5594a7545f36de213c6a58e2f235b165887331fe368618197090600090a4505050565b600054610100900460ff16806128535750612853613eb4565b80612861575060005460ff16155b61289c5760405162461bcd60e51b815260040180806020018281038252602e8152602001806143d9602e913960400191505060405180910390fd5b600054610100900460ff161580156128c7576000805460ff1961ff0019909116610100171660011790555b6001600160a01b038816612922576040805162461bcd60e51b815260206004820152601a60248201527f5f6f776e657220697320746865207a65726f2061646472657373000000000000604482015290519081900360640190fd5b6001600160a01b03871661297d576040805162461bcd60e51b815260206004820152601a60248201527f5f61646d696e20697320746865207a65726f2061646472657373000000000000604482015290519081900360640190fd5b6001600160a01b0386166129d8576040805162461bcd60e51b815260206004820152601b60248201527f5f63617070657220697320746865207a65726f20616464726573730000000000604482015290519081900360640190fd5b6001600160a01b038516612a33576040805162461bcd60e51b815260206004820152601f60248201527f5f70726f6869626974657220697320746865207a65726f206164647265737300604482015290519081900360640190fd5b6001600160a01b038416612a8e576040805162461bcd60e51b815260206004820152601b60248201527f5f70617573657220697320746865207a65726f20616464726573730000000000604482015290519081900360640190fd5b6001600160a01b038316612ae9576040805162461bcd60e51b815260206004820181905260248201527f5f6d696e74657241646d696e20697320746865207a65726f2061646472657373604482015290519081900360640190fd5b6001600160a01b038216612b44576040805162461bcd60e51b815260206004820152601b60248201527f5f6d696e74657220697320746865207a65726f20616464726573730000000000604482015290519081900360640190fd5b8a51612b5790600d9060208e01906141ba565b508951612b6b90600e9060208d01906141ba565b50600f805460ff191660ff8b16179055600c80546001600160a01b03199081166001600160a01b038b8116919091179092556009805482168a8416179055600580548216898416179055600780548216888416179055600680548216878416179055600b80548216868416179055600a80549091169184169190911790558015612bfb576000805461ff00191690555b5050505050505050505050565b600654600160a01b900460ff1615612c55576040805162461bcd60e51b81526020600482015260196024820152600080516020614398833981519152604482015290519081900360640190fd5b612c6189858888613dce565b604080517f424222bb050a1f7f14017232a5671f2680a2d3420f504bd565cf03035c53198a60208201526001600160a01b03808c16828401819052908b166060830152608082018a905260a0820189905260c0820188905260e080830188905283518084039091018152610100909201909252601154909190612ce79086868686613b11565b6001600160a01b031614612d2c5760405162461bcd60e51b81526004018080602001828103825260358152602001806142866035913960400191505060405180910390fd5b612d368a86613e5a565b6126f28a8a6114f98b6118408f8f613254565b6007546001600160a01b03163314612da8576040805162461bcd60e51b815260206004820181905260248201527f7468652073656e646572206973206e6f74207468652070726f68696269746572604482015290519081900360640190fd5b600654600160a01b900460ff1615612df5576040805162461bcd60e51b81526020600482015260196024820152600080516020614398833981519152604482015290519081900360640190fd5b806001600160a01b038116612e3f576040805162461bcd60e51b8152602060048201819052602482015260008051602061432e833981519152604482015290519081900360640190fd5b6001600160a01b038216600090815260086020526040902054829060ff1615612eac576040805162461bcd60e51b815260206004820152601a6024820152791d1a1a5cc81858d8dbdd5b9d081a5cc81c1c9bda1a589a5d195960321b604482015290519081900360640190fd5b6001600160a01b038316600081815260086020908152604091829020805460ff191660011790819055825160ff919091161515815291513393927fab0ab2fa6ff81b10c5afab4726a665d4379f2d0acaaafbe4c4d737ade05a8e4692908290030190a3505050565b7f424222bb050a1f7f14017232a5671f2680a2d3420f504bd565cf03035c53198a81565b6009546001600160a01b03163314612f85576040805162461bcd60e51b815260206004820152601b6024820152600080516020614266833981519152604482015290519081900360640190fd5b600654600160a01b900460ff1615612fd2576040805162461bcd60e51b81526020600482015260196024820152600080516020614398833981519152604482015290519081900360640190fd5b806001600160a01b03811661301c576040805162461bcd60e51b8152602060048201819052602482015260008051602061432e833981519152604482015290519081900360640190fd5b600780546001600160a01b038481166001600160a01b03198316179283905560405191811692339291169083907f85ae865187b1d7c0069f5fab638cbfcb8f3f9d23bc090e1084abc0dc42def0d290600090a4505050565b600654600160a01b900460ff16156130c1576040805162461bcd60e51b81526020600482015260196024820152600080516020614398833981519152604482015290519081900360640190fd5b42841015613116576040805162461bcd60e51b815260206004820152601e60248201527f46696174546f6b656e56323a207065726d697420697320657870697265640000604482015290519081900360640190fd5b6001600160a01b0380881660008181526013602090815260409182902080546001810190915582517f6e71edae12b1b97f4d1f60370fef10105fa2faae0126114a169c64845d6126c992810192909252818301849052938a1660608201526080810189905260a081019390935260c08084018890528151808503909101815260e090930190526011546131ac9086868686613b11565b6001600160a01b031614613207576040805162461bcd60e51b815260206004820152601960248201527f7065726d69743a20696e76616c6964207369676e617475726500000000000000604482015290519081900360640190fd5b613212888888613829565b5050505050505050565b7f158b0a9edf7a828aad02f63cd515c68ef2f50ba807396f6d12842833a159742981565b600f5461010090046001600160a01b031681565b6001600160a01b03918216600090815260026020908152604080832093909416825291909152205490565b6007546001600160a01b031681565b600654600160a01b900460ff16156132db576040805162461bcd60e51b81526020600482015260196024820152600080516020614398833981519152604482015290519081900360640190fd5b6132e789858888613dce565b604080517f808c10407a796f3ef2c7ea38c0638ea9d2b8a1c63e3ca9e1f56ce84ae59df73c60208201526001600160a01b03808c16828401819052908b166060830152608082018a905260a0820189905260c0820188905260e08083018890528351808403909101815261010090920190925260115490919061336d9086868686613b11565b6001600160a01b0316146133b25760405162461bcd60e51b815260040180806020018281038252602b8152602001806144d1602b913960400191505060405180910390fd5b6133bc8a86613e5a565b6126f28a8a8a613829565b600654600160a01b900460ff1615613414576040805162461bcd60e51b81526020600482015260196024820152600080516020614398833981519152604482015290519081900360640190fd5b6001600160a01b038916600090815260086020526040902054899060ff1615613481576040805162461bcd60e51b815260206004820152601a6024820152791d1a1a5cc81858d8dbdd5b9d081a5cc81c1c9bda1a589a5d195960321b604482015290519081900360640190fd5b61348d8a868989613dce565b604080517f7c7c6cdb67a18743f49ec6fa9b35f50d52ed05cbed4cc592e13b44501c1a226760208201526001600160a01b03808d16828401819052908c166060830152608082018b905260a082018a905260c0820189905260e0808301899052835180840390910181526101009092019092526011549091906135139087878786613b11565b6001600160a01b0316146135585760405162461bcd60e51b815260040180806020018281038252602c815260200180614407602c913960400191505060405180910390fd5b6135628b87613e5a565b612bfb8b8b8b613c8a565b6001600160a01b03919091166000908152601260209081526040808320938352929052205460ff1690565b6009546001600160a01b031681565b6005546001600160a01b03163314613606576040805162461bcd60e51b815260206004820152601c60248201527f7468652073656e646572206973206e6f74207468652063617070657200000000604482015290519081900360640190fd5b600654600160a01b900460ff1615613653576040805162461bcd60e51b81526020600482015260196024820152600080516020614398833981519152604482015290519081900360640190fd5b80806000106136935760405162461bcd60e51b81526004018080602001828103825260238152602001806144336023913960400191505060405180910390fd5b8161369c610feb565b11156136d95760405162461bcd60e51b81526004018080602001828103825260298152602001806145206029913960400191505060405180910390fd5b610fad82613702565b6000601836106136fb575060131936013560601c610fef565b5033610fef565b6004819055604051339082907f3bb5a3ed42af6c70969e54bbe40e4bba09c07f42c120cbec4ac0ee7eb0057fc990600090a350565b6001600160a01b038216613792576040805162461bcd60e51b815260206004820152601f60248201527f45524332303a206d696e7420746f20746865207a65726f206164647265737300604482015290519081900360640190fd5b6003546137a5908263ffffffff61396716565b6003556001600160a01b0382166000908152600160205260409020546137d1908263ffffffff61396716565b6001600160a01b03831660008181526001602090815260408083209490945583518581529351929391927fddf252ad1be2c89b69c2b068fc378daa952ba7f163c4a11628f55a4df523b3ef9281900390910190a35050565b6001600160a01b03831661386e5760405162461bcd60e51b81526004018080602001828103825260248152602001806144fc6024913960400191505060405180910390fd5b6001600160a01b0382166138b35760405162461bcd60e51b815260040180806020018281038252602281526020018061430c6022913960400191505060405180910390fd5b6001600160a01b03808416600081815260026020908152604080832094871680845294825291829020859055815185815291517f8c5be1e5ebec7d5bd14f71427d1e84f3dd0314c0f7b2291e5b200ac8c7c3b9259281900390910190a3505050565b6000613922848484613c8a565b6001600160a01b03841660009081526002602090815260408083203380855292529091205461395d9186916114f9908663ffffffff613bda16565b5060019392505050565b6000828201838110156139c1576040805162461bcd60e51b815260206004820152601b60248201527f536166654d6174683a206164646974696f6e206f766572666c6f770000000000604482015290519081900360640190fd5b9392505050565b6001600160a01b038216613a0d5760405162461bcd60e51b815260040180806020018281038252602181526020018061448b6021913960400191505060405180910390fd5b600354613a20908263ffffffff613bda16565b6003556001600160a01b038216600090815260016020526040902054613a4c908263ffffffff613bda16565b6001600160a01b0383166000818152600160209081526040808320949094558351858152935191937fddf252ad1be2c89b69c2b068fc378daa952ba7f163c4a11628f55a4df523b3ef929081900390910190a35050565b6001600160a01b038216600090815260126020908152604080832084845290915281205460ff166002811115613ad557fe5b14610fad5760405162461bcd60e51b815260040180806020018281038252602e81526020018061456f602e913960400191505060405180910390fd5b80516020808301919091206040805161190160f01b81850152602281018990526042808201939093528151808203909301835260620190528051910120600090613b5d81878787613eba565b979650505050505050565b8151602092830120815191830191909120604080517f8b73c3c69bb8fe3d512ecc4cf759cc79239f7b179b0ffacaa9a75d522b39400f818601528082019390935260608301919091524660808301523060a0808401919091528151808403909101815260c09092019052805191012090565b60006139c183836040518060400160405280601e81526020017f536166654d6174683a207375627472616374696f6e206f766572666c6f770000815250614038565b600060183610801590613c335750613c33336119f4565b15613c8557613c7e6000368080601f01602080910402602001604051908101604052809392919081815260200183838082843760009201919091525050601319360191506140cf9050565b9050610fef565b503390565b6001600160a01b038316613ccf5760405162461bcd60e51b81526004018080602001828103825260258152602001806144ac6025913960400191505060405180910390fd5b6001600160a01b038216613d145760405162461bcd60e51b81526004018080602001828103825260238152602001806142436023913960400191505060405180910390fd5b6001600160a01b038316600090815260016020526040902054613d3d908263ffffffff613bda16565b6001600160a01b038085166000908152600160205260408082209390935590841681522054613d72908263ffffffff61396716565b6001600160a01b0380841660008181526001602090815260409182902094909455805185815290519193928716927fddf252ad1be2c89b69c2b068fc378daa952ba7f163c4a11628f55a4df523b3ef92918290030190a3505050565b814211613e0c5760405162461bcd60e51b815260040180806020018281038252602b8152602001806142bb602b913960400191505060405180910390fd5b804210613e4a5760405162461bcd60e51b815260040180806020018281038252602581526020018061459d6025913960400191505060405180910390fd5b613e548484613aa3565b50505050565b6001600160a01b0382166000818152601260209081526040808320858452909152808220805460ff19166001179055518392917f98de503528ee59b575ef0c0a2576a82497bfc029a5685b209e9ec333479b10a591a35050565b303b1590565b60007f7fffffffffffffffffffffffffffffff5d576e7357a4501ddfe92f46681b20a0821115613f1b5760405162461bcd60e51b81526004018080602001828103825260268152602001806145496026913960400191505060405180910390fd5b8360ff16601b14158015613f3357508360ff16601c14155b15613f6f5760405162461bcd60e51b81526004018080602001828103825260268152602001806142e66026913960400191505060405180910390fd5b604080516000808252602080830180855289905260ff88168385015260608301879052608083018690529251909260019260a080820193601f1981019281900390910190855afa158015613fc7573d6000803e3d6000fd5b5050604051601f1901519150506001600160a01b03811661402f576040805162461bcd60e51b815260206004820152601c60248201527f45435265636f7665723a20696e76616c6964207369676e617475726500000000604482015290519081900360640190fd5b95945050505050565b600081848411156140c75760405162461bcd60e51b81526004018080602001828103825283818151815260200191508051906020019080838360005b8381101561408c578181015183820152602001614074565b50505050905090810190601f1680156140b95780820380516001836020036101000a031916815260200191505b509250505060405180910390fd5b505050900390565b6000816014018351101561412a576040805162461bcd60e51b815260206004820152601b60248201527f72656164416464726573733a206461746120746f6f2073686f72740000000000604482015290519081900360640190fd5b5001601401516001600160a01b031690565b828054600181600116156101000203166002900490600052602060002090601f016020900481019282601f1061417d5782800160ff198235161785556141aa565b828001600101855582156141aa579182015b828111156141aa57823582559160200191906001019061418f565b506141b6929150614228565b5090565b828054600181600116156101000203166002900490600052602060002090601f016020900481019282601f106141fb57805160ff19168380011785556141aa565b828001600101855582156141aa579182015b828111156141aa57825182559160200191906001019061420d565b610fef91905b808211156141b6576000815560010161422e56fe45524332303a207472616e7366657220746f20746865207a65726f20616464726573737468652073656e646572206973206e6f74207468652061646d696e0000000000696e637265617365416c6c6f77616e636557697468417574686f72697a6174696f6e3a20696e76616c6964207369676e617475726546696174546f6b656e56323a20617574686f72697a6174696f6e206973206e6f74207965742076616c696445435265636f7665723a20696e76616c6964207369676e6174757265202776272076616c756545524332303a20617070726f766520746f20746865207a65726f206164647265737374686973206163636f756e7420697320746865207a65726f20616464726573737468652077697065722063616e206f6e6c7920626520696e69746961746564206f6e636563616e63656c417574686f72697a6174696f6e3a20696e76616c6964207369676e61747572657468697320697320612070617573656420636f6e7472616374000000000000007468652073656e646572206973206e6f7420746865206d696e74657241646d696e496e697469616c697a61626c653a20636f6e747261637420697320616c726561647920696e697469616c697a65647472616e7366657257697468417574686f72697a6174696f6e3a20696e76616c6964207369676e61747572657468697320616d6f756e74206973206e6f742061206e61747572616c206e756d6265726465637265617365416c6c6f77616e636557697468417574686f72697a6174696f6e3a20696e76616c6964207369676e617475726545524332303a206275726e2066726f6d20746865207a65726f206164647265737345524332303a207472616e736665722066726f6d20746865207a65726f2061646472657373617070726f766557697468417574686f72697a6174696f6e3a20696e76616c6964207369676e617475726545524332303a20617070726f76652066726f6d20746865207a65726f20616464726573737468697320616d6f756e74206973206c657373207468616e2074686520746f74616c79537570706c7945435265636f7665723a20696e76616c6964207369676e6174757265202773272076616c756546696174546f6b656e56323a20617574686f72697a6174696f6e2069732075736564206f722063616e63656c656446696174546f6b656e56323a20617574686f72697a6174696f6e20697320657870697265647468697320616d6f756e74206973206d6f7265207468616e206361706163697479a264697066735822122025a98f79db1e6a89c2d299d53fbe0510248bbc0f7a4d89d4d545be3b2ee7122464736f6c63430006090033",
  "immutableReferences": {},
  "source": "// SPDX-License-Identifier:MIT\npragma solidity 0.6.9;\n\nimport \"./Token_v1.sol\";\nimport \"./Roles/Wiper.sol\";\nimport \"./Util/EIP712.sol\";\nimport \"./MetaTransactions.sol\";\nimport \"./Permit.sol\";\nimport \"./Testmint.sol\";\nimport \"@opengsn/gsn/contracts/BaseRelayRecipient.sol\";\n\ncontract Token_v2 is Token_v1, Wiper, BaseRelayRecipient, MetaTransactions, Permit, Testmint  {\n\n    bool private _initializedV2;\n\n    event ProhibitedAddressWiped(address indexed addr, uint256 amount);\n\n    // initialize V2\n    function initializeV2(string calldata _newName, address _wiper, address _forwarder) external {\n        require(\n            !_initializedV2,\n            \"Contract is already initialized\"\n        );\n        //new name\n        name = _newName;\n\n        //initialize wiper\n        wiper = _wiper;\n\n        DOMAIN_SEPARATOR = EIP712.makeDomainSeparator(name, \"2\");\n\n        trustedForwarder = _forwarder;        \n        _initializedV2 = true;\n\n    }\n\n    // wipe balance of prohibited address\n    function wipeProhibitedAddress(address _account) public whenNotPaused onlyWiper onlyProhibited(_account) {\n        uint256 _balance = balanceOf(_account);\n        _burn(_account, _balance);\n        emit ProhibitedAddressWiped(_account, _balance);\n    }\n\n    function transfer(address _recipient, uint256 _amount) public override whenNotPaused onlyNotProhibited(msg.sender) isNaturalNumber(_amount) returns (bool) {\n        //_transfer(msg.sender, _recipient, _amount);\n        _transfer(_msgSender(), _recipient, _amount);\n        return true;\n    }\n\n    function versionRecipient() external override view returns (string memory) {\n        return \"2.0.0\";\n    }\n\n    // not need\n    function SetTrustedForwarder(address forwarder) public whenNotPaused onlyAdmin {\n        trustedForwarder = forwarder;\n    }\n}",
  "sourcePath": "/Users/usr0102794/opengsn/metacoin/contracts/GYEN/Token_v2.sol",
  "compiler": {
    "name": "solc",
    "version": "0.6.9+commit.3e3065ac.Emscripten.clang"
  },
  "schemaVersion": "3.2.5",
  "updatedAt": "2020-10-04T13:08:29.372Z",
  "networkType": "ethereum",
  "devdoc": {
    "methods": {
      "allowance(address,address)": {
        "details": "See `IERC20.allowance`."
      },
      "approve(address,uint256)": {
        "details": "See `IERC20.approve`. Requirements: - `spender` cannot be the zero address."
      },
      "approveWithAuthorization(address,address,uint256,uint256,uint256,bytes32,uint8,bytes32,bytes32)": {
        "params": {
          "nonce": "Unique nonce",
          "owner": "Token owner's address (Authorizer)",
          "r": "r of the signature",
          "s": "s of the signature",
          "spender": "Spender's address",
          "v": "v of the signature",
          "validAfter": "The time after which this is valid (unix time)",
          "validBefore": "The time before which this is valid (unix time)",
          "value": "Amount of allowance"
        }
      },
      "authorizationState(address,bytes32)": {
        "params": {
          "authorizer": "Authorizer's address",
          "nonce": "Nonce of the authorization"
        },
        "returns": {
          "_0": "Authorization state"
        }
      },
      "balanceOf(address)": {
        "details": "See `IERC20.balanceOf`."
      },
      "cancelAuthorization(address,bytes32,uint8,bytes32,bytes32)": {
        "details": "Works only if the authorization is not yet used.",
        "params": {
          "authorizer": "Authorizer's address",
          "nonce": "Nonce of the authorization",
          "r": "r of the signature",
          "s": "s of the signature",
          "v": "v of the signature"
        }
      },
      "changeAdmin(address)": {
        "details": "\"whenNotPaused\" modifier should not be used here"
      },
      "changePauser(address)": {
        "details": "\"whenNotPaused\" modifier should not be used here"
      },
      "decreaseAllowance(address,uint256)": {
        "details": "Atomically decreases the allowance granted to `spender` by the caller. This is an alternative to `approve` that can be used as a mitigation for problems described in `IERC20.approve`. Emits an `Approval` event indicating the updated allowance. Requirements: - `spender` cannot be the zero address. - `spender` must have allowance for the caller of at least `subtractedValue`."
      },
      "decreaseAllowanceWithAuthorization(address,address,uint256,uint256,uint256,bytes32,uint8,bytes32,bytes32)": {
        "params": {
          "decrement": "Amount of decrease in allowance",
          "nonce": "Unique nonce",
          "owner": "Token owner's address (Authorizer)",
          "r": "r of the signature",
          "s": "s of the signature",
          "spender": "Spender's address",
          "v": "v of the signature",
          "validAfter": "The time after which this is valid (unix time)",
          "validBefore": "The time before which this is valid (unix time)"
        }
      },
      "increaseAllowance(address,uint256)": {
        "details": "Atomically increases the allowance granted to `spender` by the caller. This is an alternative to `approve` that can be used as a mitigation for problems described in `IERC20.approve`. Emits an `Approval` event indicating the updated allowance. Requirements: - `spender` cannot be the zero address."
      },
      "increaseAllowanceWithAuthorization(address,address,uint256,uint256,uint256,bytes32,uint8,bytes32,bytes32)": {
        "params": {
          "increment": "Amount of increase in allowance",
          "nonce": "Unique nonce",
          "owner": "Token owner's address (Authorizer)",
          "r": "r of the signature",
          "s": "s of the signature",
          "spender": "Spender's address",
          "v": "v of the signature",
          "validAfter": "The time after which this is valid (unix time)",
          "validBefore": "The time before which this is valid (unix time)"
        }
      },
      "nonces(address)": {
        "params": {
          "owner": "Token owner's address (Authorizer)"
        },
        "returns": {
          "_0": "Next nonce"
        }
      },
      "permit(address,address,uint256,uint256,uint8,bytes32,bytes32)": {
        "params": {
          "deadline": "Expiration time, seconds since the epoch",
          "owner": "Token owner's address (Authorizer)",
          "r": "r of the signature",
          "s": "s of the signature",
          "spender": "Spender's address",
          "v": "v of the signature",
          "value": "Amount of allowance"
        }
      },
      "totalSupply()": {
        "details": "See `IERC20.totalSupply`."
      },
      "transferWithAuthorization(address,address,uint256,uint256,uint256,bytes32,uint8,bytes32,bytes32)": {
        "params": {
          "from": "Payer's address (Authorizer)",
          "nonce": "Unique nonce",
          "r": "r of the signature",
          "s": "s of the signature",
          "to": "Payee's address",
          "v": "v of the signature",
          "validAfter": "The time after which this is valid (unix time)",
          "validBefore": "The time before which this is valid (unix time)",
          "value": "Amount to be transferred"
        }
      }
    }
  },
  "userdoc": {
    "methods": {
      "approveWithAuthorization(address,address,uint256,uint256,uint256,bytes32,uint8,bytes32,bytes32)": {
        "notice": "Update allowance with a signed authorization"
      },
      "authorizationState(address,bytes32)": {
        "notice": "Returns the state of an authorization"
      },
      "cancelAuthorization(address,bytes32,uint8,bytes32,bytes32)": {
        "notice": "Attempt to cancel an authorization"
      },
      "changeAdmin(address)": {
        "notice": "Change Admin"
      },
      "changePauser(address)": {
        "notice": "Change Pauser"
      },
      "decreaseAllowanceWithAuthorization(address,address,uint256,uint256,uint256,bytes32,uint8,bytes32,bytes32)": {
        "notice": "Decrease allowance with a signed authorization"
      },
      "increaseAllowanceWithAuthorization(address,address,uint256,uint256,uint256,bytes32,uint8,bytes32,bytes32)": {
        "notice": "Increase allowance with a signed authorization"
      },
      "nonces(address)": {
        "notice": "Nonces for permit"
      },
      "permit(address,address,uint256,uint256,uint8,bytes32,bytes32)": {
        "notice": "Update allowance with a signed permit"
      },
      "transferWithAuthorization(address,address,uint256,uint256,uint256,bytes32,uint8,bytes32,bytes32)": {
        "notice": "Execute a transfer with a signed authorization"
      }
    }
  }
}